{
  "_format": "hh-sol-artifact-1",
  "contractName": "Token",
  "sourceName": "contracts/Token.sol",
  "abi": [
    {
      "inputs": [
        {
          "internalType": "address",
          "name": "target",
          "type": "address"
        }
      ],
      "name": "AddressEmptyCode",
      "type": "error"
    },
    {
      "inputs": [
        {
          "internalType": "address",
          "name": "account",
          "type": "address"
        }
      ],
      "name": "AddressInsufficientBalance",
      "type": "error"
    },
    {
      "inputs": [],
      "name": "ECDSAInvalidSignature",
      "type": "error"
    },
    {
      "inputs": [
        {
          "internalType": "uint256",
          "name": "length",
          "type": "uint256"
        }
      ],
      "name": "ECDSAInvalidSignatureLength",
      "type": "error"
    },
    {
      "inputs": [
        {
          "internalType": "bytes32",
          "name": "s",
          "type": "bytes32"
        }
      ],
      "name": "ECDSAInvalidSignatureS",
      "type": "error"
    },
    {
      "inputs": [
        {
          "internalType": "address",
          "name": "spender",
          "type": "address"
        },
        {
          "internalType": "uint256",
          "name": "allowance",
          "type": "uint256"
        },
        {
          "internalType": "uint256",
          "name": "needed",
          "type": "uint256"
        }
      ],
      "name": "ERC20InsufficientAllowance",
      "type": "error"
    },
    {
      "inputs": [
        {
          "internalType": "address",
          "name": "sender",
          "type": "address"
        },
        {
          "internalType": "uint256",
          "name": "balance",
          "type": "uint256"
        },
        {
          "internalType": "uint256",
          "name": "needed",
          "type": "uint256"
        }
      ],
      "name": "ERC20InsufficientBalance",
      "type": "error"
    },
    {
      "inputs": [
        {
          "internalType": "address",
          "name": "approver",
          "type": "address"
        }
      ],
      "name": "ERC20InvalidApprover",
      "type": "error"
    },
    {
      "inputs": [
        {
          "internalType": "address",
          "name": "receiver",
          "type": "address"
        }
      ],
      "name": "ERC20InvalidReceiver",
      "type": "error"
    },
    {
      "inputs": [
        {
          "internalType": "address",
          "name": "sender",
          "type": "address"
        }
      ],
      "name": "ERC20InvalidSender",
      "type": "error"
    },
    {
      "inputs": [
        {
          "internalType": "address",
          "name": "spender",
          "type": "address"
        }
      ],
      "name": "ERC20InvalidSpender",
      "type": "error"
    },
    {
      "inputs": [
        {
          "internalType": "uint256",
          "name": "deadline",
          "type": "uint256"
        }
      ],
      "name": "ERC2612ExpiredSignature",
      "type": "error"
    },
    {
      "inputs": [
        {
          "internalType": "address",
          "name": "signer",
          "type": "address"
        },
        {
          "internalType": "address",
          "name": "owner",
          "type": "address"
        }
      ],
      "name": "ERC2612InvalidSigner",
      "type": "error"
    },
    {
      "inputs": [],
      "name": "FailedInnerCall",
      "type": "error"
    },
    {
      "inputs": [
        {
          "internalType": "address",
          "name": "account",
          "type": "address"
        },
        {
          "internalType": "uint256",
          "name": "currentNonce",
          "type": "uint256"
        }
      ],
      "name": "InvalidAccountNonce",
      "type": "error"
    },
    {
      "inputs": [],
      "name": "InvalidInitialization",
      "type": "error"
    },
    {
      "inputs": [],
      "name": "NotInitializing",
      "type": "error"
    },
    {
      "inputs": [
        {
          "internalType": "address",
          "name": "owner",
          "type": "address"
        }
      ],
      "name": "OwnableInvalidOwner",
      "type": "error"
    },
    {
      "inputs": [
        {
          "internalType": "address",
          "name": "account",
          "type": "address"
        }
      ],
      "name": "OwnableUnauthorizedAccount",
      "type": "error"
    },
    {
      "inputs": [
        {
          "internalType": "address",
          "name": "token",
          "type": "address"
        }
      ],
      "name": "SafeERC20FailedOperation",
      "type": "error"
    },
    {
      "anonymous": false,
      "inputs": [
        {
          "indexed": true,
          "internalType": "address",
          "name": "owner",
          "type": "address"
        },
        {
          "indexed": true,
          "internalType": "address",
          "name": "spender",
          "type": "address"
        },
        {
          "indexed": false,
          "internalType": "uint256",
          "name": "value",
          "type": "uint256"
        }
      ],
      "name": "Approval",
      "type": "event"
    },
    {
      "anonymous": false,
      "inputs": [],
      "name": "EIP712DomainChanged",
      "type": "event"
    },
    {
      "anonymous": false,
      "inputs": [
        {
          "indexed": false,
          "internalType": "uint64",
          "name": "version",
          "type": "uint64"
        }
      ],
      "name": "Initialized",
      "type": "event"
    },
    {
      "anonymous": false,
      "inputs": [
        {
          "indexed": false,
          "internalType": "uint256",
          "name": "timestamp",
          "type": "uint256"
        },
        {
          "indexed": false,
          "internalType": "uint256",
          "name": "blockNumber",
          "type": "uint256"
        }
      ],
      "name": "LockDisabled",
      "type": "event"
    },
    {
      "anonymous": false,
      "inputs": [
        {
          "indexed": false,
          "internalType": "uint256",
          "name": "timestamp",
          "type": "uint256"
        },
        {
          "indexed": false,
          "internalType": "uint256",
          "name": "blockNumber",
          "type": "uint256"
        }
      ],
      "name": "LockEnabled",
      "type": "event"
    },
    {
      "anonymous": false,
      "inputs": [
        {
          "indexed": true,
          "internalType": "address",
          "name": "previousOwner",
          "type": "address"
        },
        {
          "indexed": true,
          "internalType": "address",
          "name": "newOwner",
          "type": "address"
        }
      ],
      "name": "OwnershipTransferred",
      "type": "event"
    },
    {
      "anonymous": false,
      "inputs": [
        {
          "indexed": true,
          "internalType": "address",
          "name": "from",
          "type": "address"
        },
        {
          "indexed": true,
          "internalType": "address",
          "name": "to",
          "type": "address"
        },
        {
          "indexed": false,
          "internalType": "uint256",
          "name": "value",
          "type": "uint256"
        }
      ],
      "name": "Transfer",
      "type": "event"
    },
    {
      "anonymous": false,
      "inputs": [
        {
          "indexed": true,
          "internalType": "address",
          "name": "from",
          "type": "address"
        },
        {
          "indexed": true,
          "internalType": "address",
          "name": "to",
          "type": "address"
        },
        {
          "indexed": false,
          "internalType": "uint256",
          "name": "value",
          "type": "uint256"
        },
        {
          "indexed": false,
          "internalType": "uint256",
          "name": "blockNumber",
          "type": "uint256"
        }
      ],
      "name": "TransferAndLock",
      "type": "event"
    },
    {
      "anonymous": false,
      "inputs": [
        {
          "indexed": true,
          "internalType": "address",
          "name": "wallet",
          "type": "address"
        },
        {
          "indexed": false,
          "internalType": "uint256",
          "name": "blockNumber",
          "type": "uint256"
        }
      ],
      "name": "UpdateLockBlock",
      "type": "event"
    },
    {
      "stateMutability": "payable",
      "type": "fallback"
    },
    {
      "inputs": [],
      "name": "DOMAIN_SEPARATOR",
      "outputs": [
        {
          "internalType": "bytes32",
          "name": "",
          "type": "bytes32"
        }
      ],
      "stateMutability": "view",
      "type": "function"
    },
    {
      "inputs": [
        {
          "internalType": "address",
          "name": "wallet",
          "type": "address"
        }
      ],
      "name": "addLockTransferAdmin",
      "outputs": [],
      "stateMutability": "nonpayable",
      "type": "function"
    },
    {
      "inputs": [
        {
          "internalType": "address",
          "name": "owner",
          "type": "address"
        },
        {
          "internalType": "address",
          "name": "spender",
          "type": "address"
        }
      ],
      "name": "allowance",
      "outputs": [
        {
          "internalType": "uint256",
          "name": "",
          "type": "uint256"
        }
      ],
      "stateMutability": "view",
      "type": "function"
    },
    {
      "inputs": [],
      "name": "alreadyMinted",
      "outputs": [
        {
          "internalType": "uint256",
          "name": "",
          "type": "uint256"
        }
      ],
      "stateMutability": "view",
      "type": "function"
    },
    {
      "inputs": [
        {
          "internalType": "address",
          "name": "spender",
          "type": "address"
        },
        {
          "internalType": "uint256",
          "name": "value",
          "type": "uint256"
        }
      ],
      "name": "approve",
      "outputs": [
        {
          "internalType": "bool",
          "name": "",
          "type": "bool"
        }
      ],
      "stateMutability": "nonpayable",
      "type": "function"
    },
    {
      "inputs": [
        {
          "internalType": "address",
          "name": "account",
          "type": "address"
        }
      ],
      "name": "balanceOf",
      "outputs": [
        {
          "internalType": "uint256",
          "name": "",
          "type": "uint256"
        }
      ],
      "stateMutability": "view",
      "type": "function"
    },
    {
      "inputs": [
        {
          "internalType": "address",
          "name": "token",
          "type": "address"
        }
      ],
      "name": "claimStuckTokens",
      "outputs": [],
      "stateMutability": "nonpayable",
      "type": "function"
    },
    {
      "inputs": [],
      "name": "decimals",
      "outputs": [
        {
          "internalType": "uint8",
          "name": "",
          "type": "uint8"
        }
      ],
      "stateMutability": "view",
      "type": "function"
    },
    {
      "inputs": [],
      "name": "disableLockPermanently",
      "outputs": [],
      "stateMutability": "nonpayable",
      "type": "function"
    },
    {
      "inputs": [],
      "name": "eip712Domain",
      "outputs": [
        {
          "internalType": "bytes1",
          "name": "fields",
          "type": "bytes1"
        },
        {
          "internalType": "string",
          "name": "name",
          "type": "string"
        },
        {
          "internalType": "string",
          "name": "version",
          "type": "string"
        },
        {
          "internalType": "uint256",
          "name": "chainId",
          "type": "uint256"
        },
        {
          "internalType": "address",
          "name": "verifyingContract",
          "type": "address"
        },
        {
          "internalType": "bytes32",
          "name": "salt",
          "type": "bytes32"
        },
        {
          "internalType": "uint256[]",
          "name": "extensions",
          "type": "uint256[]"
        }
      ],
      "stateMutability": "view",
      "type": "function"
    },
    {
      "inputs": [],
      "name": "enableLockPermanently",
      "outputs": [],
      "stateMutability": "nonpayable",
      "type": "function"
    },
    {
      "inputs": [
        {
          "internalType": "address",
          "name": "caller",
          "type": "address"
        }
      ],
      "name": "getAvailableAmount",
      "outputs": [
        {
          "internalType": "uint256",
          "name": "",
          "type": "uint256"
        },
        {
          "internalType": "uint256",
          "name": "",
          "type": "uint256"
        }
      ],
      "stateMutability": "view",
      "type": "function"
    },
    {
      "inputs": [
        {
          "internalType": "address",
          "name": "caller",
          "type": "address"
        },
        {
          "internalType": "uint16",
          "name": "index",
          "type": "uint16"
        }
      ],
      "name": "getLockAmountAndUnlockAt",
      "outputs": [
        {
          "internalType": "uint256",
          "name": "",
          "type": "uint256"
        },
        {
          "internalType": "uint256",
          "name": "",
          "type": "uint256"
        }
      ],
      "stateMutability": "view",
      "type": "function"
    },
    {
      "inputs": [],
      "name": "initSupply",
      "outputs": [
        {
          "internalType": "uint256",
          "name": "",
          "type": "uint256"
        }
      ],
      "stateMutability": "view",
      "type": "function"
    },
    {
      "inputs": [
        {
          "internalType": "address",
          "name": "initialOwner",
          "type": "address"
        }
      ],
      "name": "initialize",
      "outputs": [],
      "stateMutability": "nonpayable",
      "type": "function"
    },
    {
      "inputs": [],
      "name": "isLockActive",
      "outputs": [
        {
          "internalType": "bool",
          "name": "",
          "type": "bool"
        }
      ],
      "stateMutability": "view",
      "type": "function"
    },
    {
      "inputs": [
        {
          "internalType": "uint256",
          "name": "",
          "type": "uint256"
        }
      ],
      "name": "lockTransferAdmins",
      "outputs": [
        {
          "internalType": "address",
          "name": "",
          "type": "address"
        }
      ],
      "stateMutability": "view",
      "type": "function"
    },
    {
      "inputs": [],
      "name": "maxSupply",
      "outputs": [
        {
          "internalType": "uint256",
          "name": "",
          "type": "uint256"
        }
      ],
      "stateMutability": "view",
      "type": "function"
    },
    {
      "inputs": [
        {
          "internalType": "address",
          "name": "to",
          "type": "address"
        },
        {
          "internalType": "uint256",
          "name": "amount",
          "type": "uint256"
        }
      ],
      "name": "mint",
      "outputs": [],
      "stateMutability": "nonpayable",
      "type": "function"
    },
    {
      "inputs": [
        {
          "internalType": "address",
          "name": "",
          "type": "address"
        }
      ],
      "name": "minter2MintAmount",
      "outputs": [
        {
          "internalType": "uint256",
          "name": "",
          "type": "uint256"
        }
      ],
      "stateMutability": "view",
      "type": "function"
    },
    {
      "inputs": [],
      "name": "name",
      "outputs": [
        {
          "internalType": "string",
          "name": "",
          "type": "string"
        }
      ],
      "stateMutability": "view",
      "type": "function"
    },
    {
      "inputs": [
        {
          "internalType": "address",
          "name": "owner",
          "type": "address"
        }
      ],
      "name": "nonces",
      "outputs": [
        {
          "internalType": "uint256",
          "name": "",
          "type": "uint256"
        }
      ],
      "stateMutability": "view",
      "type": "function"
    },
    {
      "inputs": [],
      "name": "owner",
      "outputs": [
        {
          "internalType": "address",
          "name": "",
          "type": "address"
        }
      ],
      "stateMutability": "view",
      "type": "function"
    },
    {
      "inputs": [
        {
          "internalType": "address",
          "name": "owner",
          "type": "address"
        },
        {
          "internalType": "address",
          "name": "spender",
          "type": "address"
        },
        {
          "internalType": "uint256",
          "name": "value",
          "type": "uint256"
        },
        {
          "internalType": "uint256",
          "name": "deadline",
          "type": "uint256"
        },
        {
          "internalType": "uint8",
          "name": "v",
          "type": "uint8"
        },
        {
          "internalType": "bytes32",
          "name": "r",
          "type": "bytes32"
        },
        {
          "internalType": "bytes32",
          "name": "s",
          "type": "bytes32"
        }
      ],
      "name": "permit",
      "outputs": [],
      "stateMutability": "nonpayable",
      "type": "function"
    },
    {
      "inputs": [],
      "name": "renounceOwnership",
      "outputs": [],
      "stateMutability": "nonpayable",
      "type": "function"
    },
    {
      "inputs": [
        {
          "internalType": "address",
          "name": "minter",
          "type": "address"
        },
        {
          "internalType": "uint256",
          "name": "amount",
          "type": "uint256"
        }
      ],
      "name": "setMinter",
      "outputs": [],
      "stateMutability": "nonpayable",
      "type": "function"
    },
    {
      "inputs": [],
      "name": "symbol",
      "outputs": [
        {
          "internalType": "string",
          "name": "",
          "type": "string"
        }
      ],
      "stateMutability": "view",
      "type": "function"
    },
    {
      "inputs": [],
      "name": "totalSupply",
      "outputs": [
        {
          "internalType": "uint256",
          "name": "",
          "type": "uint256"
        }
      ],
      "stateMutability": "view",
      "type": "function"
    },
    {
      "inputs": [
        {
          "internalType": "address",
          "name": "to",
          "type": "address"
        },
        {
          "internalType": "uint256",
          "name": "amount",
          "type": "uint256"
        }
      ],
      "name": "transfer",
      "outputs": [
        {
          "internalType": "bool",
          "name": "",
          "type": "bool"
        }
      ],
      "stateMutability": "nonpayable",
      "type": "function"
    },
    {
      "inputs": [
        {
          "internalType": "address",
          "name": "to",
          "type": "address"
        },
        {
          "internalType": "uint256",
          "name": "value",
          "type": "uint256"
        },
        {
          "internalType": "uint256",
          "name": "lockSeconds",
          "type": "uint256"
        }
      ],
      "name": "transferAndLock",
      "outputs": [],
      "stateMutability": "nonpayable",
      "type": "function"
    },
    {
      "inputs": [
        {
          "internalType": "address",
          "name": "from",
          "type": "address"
        },
        {
          "internalType": "address",
          "name": "to",
          "type": "address"
        },
        {
          "internalType": "uint256",
          "name": "value",
          "type": "uint256"
        }
      ],
      "name": "transferFrom",
      "outputs": [
        {
          "internalType": "bool",
          "name": "",
          "type": "bool"
        }
      ],
      "stateMutability": "nonpayable",
      "type": "function"
    },
    {
      "inputs": [
        {
          "internalType": "address",
          "name": "newOwner",
          "type": "address"
        }
      ],
      "name": "transferOwnership",
      "outputs": [],
      "stateMutability": "nonpayable",
      "type": "function"
    },
    {
      "inputs": [
        {
          "internalType": "address",
          "name": "wallet",
          "type": "address"
        },
        {
          "internalType": "uint256",
          "name": "blockNumber",
          "type": "uint256"
        }
      ],
      "name": "updateLockBlock",
      "outputs": [],
      "stateMutability": "nonpayable",
      "type": "function"
    },
    {
      "inputs": [],
      "name": "version",
      "outputs": [
        {
          "internalType": "uint256",
          "name": "",
          "type": "uint256"
        }
      ],
      "stateMutability": "pure",
      "type": "function"
    },
    {
      "stateMutability": "payable",
      "type": "receive"
    }
  ],
  "bytecode": "0x608060405234801561001057600080fd5b506143b6806100206000396000f3fe6080604052600436106101fd5760003560e01c806384d5d9441161010d578063c4d66de8116100a0578063d5abeb011161006f578063d5abeb0114610759578063dd62ed3e14610784578063f2fde38b146107c1578063f9d0831a146107ea578063fec7115c1461081357610204565b8063c4d66de81461069e578063cf93340d146106c7578063cfa6e91114610705578063d505accf1461073057610204565b806397d63f93116100dc57806397d63f93146105d05780639ce38998146105fb578063a9059cbb14610624578063ab757b1a1461066157610204565b806384d5d944146105285780638ce81525146105515780638da5cb5b1461057a57806395d89b41146105a557610204565b80633b45fbc1116101905780635e1ed5211161015f5780635e1ed5211461044f57806370a0823114610466578063715018a6146104a35780637ecebe00146104ba57806384b0196e146104f757610204565b80633b45fbc11461039357806340c10f19146103d057806353bcb951146103f957806354fd4d501461042457610204565b80631f3a71ba116101cc5780631f3a71ba146102c257806323b872dd14610300578063313ce5671461033d5780633644e5151461036857610204565b806306fdde0314610206578063095ea7b3146102315780630e12b3231461026e57806318160ddd1461029757610204565b3661020457005b005b34801561021257600080fd5b5061021b61082a565b6040516102289190613201565b60405180910390f35b34801561023d57600080fd5b50610258600480360381019061025391906132bc565b6108cb565b6040516102659190613317565b60405180910390f35b34801561027a57600080fd5b50610295600480360381019061029091906132bc565b6108ee565b005b3480156102a357600080fd5b506102ac610a07565b6040516102b99190613341565b60405180910390f35b3480156102ce57600080fd5b506102e960048036038101906102e4919061335c565b610a1f565b6040516102f7929190613389565b60405180910390f35b34801561030c57600080fd5b50610327600480360381019061032291906133b2565b610bfe565b6040516103349190613317565b60405180910390f35b34801561034957600080fd5b50610352610c2d565b60405161035f9190613421565b60405180910390f35b34801561037457600080fd5b5061037d610c36565b60405161038a9190613455565b60405180910390f35b34801561039f57600080fd5b506103ba60048036038101906103b5919061335c565b610c45565b6040516103c79190613341565b60405180910390f35b3480156103dc57600080fd5b506103f760048036038101906103f291906132bc565b610c5d565b005b34801561040557600080fd5b5061040e610dad565b60405161041b9190613341565b60405180910390f35b34801561043057600080fd5b50610439610db3565b6040516104469190613341565b60405180910390f35b34801561045b57600080fd5b50610464610dbc565b005b34801561047257600080fd5b5061048d6004803603810190610488919061335c565b610e19565b60405161049a9190613341565b60405180910390f35b3480156104af57600080fd5b506104b8610e70565b005b3480156104c657600080fd5b506104e160048036038101906104dc919061335c565b610e84565b6040516104ee9190613341565b60405180910390f35b34801561050357600080fd5b5061050c610e96565b60405161051f9796959493929190613578565b60405180910390f35b34801561053457600080fd5b5061054f600480360381019061054a91906135fc565b610fa8565b005b34801561055d57600080fd5b506105786004803603810190610573919061335c565b61120a565b005b34801561058657600080fd5b5061058f611278565b60405161059c919061364f565b60405180910390f35b3480156105b157600080fd5b506105ba6112b0565b6040516105c79190613201565b60405180910390f35b3480156105dc57600080fd5b506105e5611351565b6040516105f29190613341565b60405180910390f35b34801561060757600080fd5b50610622600480360381019061061d91906132bc565b611357565b005b34801561063057600080fd5b5061064b600480360381019061064691906132bc565b6113f9565b6040516106589190613317565b60405180910390f35b34801561066d57600080fd5b506106886004803603810190610683919061366a565b611520565b604051610695919061364f565b60405180910390f35b3480156106aa57600080fd5b506106c560048036038101906106c0919061335c565b61155f565b005b3480156106d357600080fd5b506106ee60048036038101906106e991906136d1565b6117ec565b6040516106fc929190613389565b60405180910390f35b34801561071157600080fd5b5061071a6118f0565b6040516107279190613317565b60405180910390f35b34801561073c57600080fd5b5061075760048036038101906107529190613769565b611901565b005b34801561076557600080fd5b5061076e611a49565b60405161077b9190613341565b60405180910390f35b34801561079057600080fd5b506107ab60048036038101906107a6919061380b565b611a4f565b6040516107b89190613341565b60405180910390f35b3480156107cd57600080fd5b506107e860048036038101906107e3919061335c565b611ae4565b005b3480156107f657600080fd5b50610811600480360381019061080c919061335c565b611b6a565b005b34801561081f57600080fd5b50610828611ca6565b005b60606000610836611d03565b90508060030180546108479061387a565b80601f01602080910402602001604051908101604052809291908181526020018280546108739061387a565b80156108c05780601f10610895576101008083540402835291602001916108c0565b820191906000526020600020905b8154815290600101906020018083116108a357829003601f168201915b505050505091505090565b6000806108d6611d2b565b90506108e3818585611d33565b600191505092915050565b6108f6611d45565b6000600160008473ffffffffffffffffffffffffffffffffffffffff1673ffffffffffffffffffffffffffffffffffffffff168152602001908152602001600020905060005b81805490508110156109b3578282828154811061095c5761095b6138ab565b5b9060005260206000209060030201600001546109789190613909565b82828154811061098b5761098a6138ab565b5b90600052602060002090600302016002018190555080806109ab9061393d565b91505061093c565b508273ffffffffffffffffffffffffffffffffffffffff167f113fde816619c7ec1dfb7970bac1c5466435d0db4a09ba975b14cf5bce852a48836040516109fa9190613341565b60405180910390a2505050565b600080610a12611d03565b9050806002015491505090565b6000806000600160008573ffffffffffffffffffffffffffffffffffffffff1673ffffffffffffffffffffffffffffffffffffffff16815260200190815260200160002090506000805b8280549050811015610ae757828181548110610a8857610a876138ab565b5b906000526020600020906003020160020154421015610ad457828181548110610ab457610ab36138ab565b5b90600052602060002090600302016001015482610ad19190613909565b91505b8080610adf9061393d565b915050610a69565b5060003073ffffffffffffffffffffffffffffffffffffffff166370a08231876040518263ffffffff1660e01b8152600401610b23919061364f565b602060405180830381865afa158015610b40573d6000803e3d6000fd5b505050506040513d601f19601f82011682018060405250810190610b64919061399a565b90506000823073ffffffffffffffffffffffffffffffffffffffff166370a08231896040518263ffffffff1660e01b8152600401610ba2919061364f565b602060405180830381865afa158015610bbf573d6000803e3d6000fd5b505050506040513d601f19601f82011682018060405250810190610be3919061399a565b610bed91906139c7565b905081819550955050505050915091565b600080610c09611d2b565b9050610c16858285611dcc565b610c21858585611e60565b60019150509392505050565b60006012905090565b6000610c40611f54565b905090565b60066020528060005260406000206000915090505481565b6000600660003373ffffffffffffffffffffffffffffffffffffffff1673ffffffffffffffffffffffffffffffffffffffff16815260200190815260200160002054905081811015610ce4576040517f08c379a0000000000000000000000000000000000000000000000000000000008152600401610cdb90613a47565b60405180910390fd5b60045482600554610cf59190613909565b1115610d36576040517f08c379a0000000000000000000000000000000000000000000000000000000008152600401610d2d90613ab3565b60405180910390fd5b610d408383611f63565b8181610d4c91906139c7565b600660003373ffffffffffffffffffffffffffffffffffffffff1673ffffffffffffffffffffffffffffffffffffffff168152602001908152602001600020819055508160056000828254610da19190613909565b92505081905550505050565b60055481565b60006001905090565b610dc4611d45565b60016000806101000a81548160ff0219169083151502179055507f36f626ff436289b843a75d20dd61a7675ca89ff5930b2ba1f10dad7315ce08524243604051610e0f929190613389565b60405180910390a1565b600080610e24611d03565b90508060000160008473ffffffffffffffffffffffffffffffffffffffff1673ffffffffffffffffffffffffffffffffffffffff16815260200190815260200160002054915050919050565b610e78611d45565b610e826000611fe5565b565b6000610e8f826120bc565b9050919050565b6000606080600080600060606000610eac612113565b90506000801b8160000154148015610eca57506000801b8160010154145b610f09576040517f08c379a0000000000000000000000000000000000000000000000000000000008152600401610f0090613b1f565b60405180910390fd5b610f1161213b565b610f196121dc565b46306000801b600067ffffffffffffffff811115610f3a57610f39613b3f565b5b604051908082528060200260200182016040528015610f685781602001602082028036833780820191505090505b507f0f0000000000000000000000000000000000000000000000000000000000000095949392919097509750975097509750975097505090919293949596565b6000610fb2611278565b73ffffffffffffffffffffffffffffffffffffffff163373ffffffffffffffffffffffffffffffffffffffff161490506000805b6002805490508161ffff1610156110885760028161ffff168154811061100f5761100e6138ab565b5b9060005260206000200160009054906101000a900473ffffffffffffffffffffffffffffffffffffffff1673ffffffffffffffffffffffffffffffffffffffff163373ffffffffffffffffffffffffffffffffffffffff16036110755760019150611088565b808061108090613b6e565b915050610fe6565b5081806110925750805b6110d1576040517f08c379a00000000000000000000000000000000000000000000000000000000081526004016110c890613be4565b60405180910390fd5b6000429050600084826110e49190613909565b90506000600160008973ffffffffffffffffffffffffffffffffffffffff1673ffffffffffffffffffffffffffffffffffffffff1681526020019081526020016000209050806040518060600160405280858152602001898152602001848152509080600181540180825580915050600190039060005260206000209060030201600090919091909150600082015181600001556020820151816001015560408201518160020155505061119888886113f9565b508773ffffffffffffffffffffffffffffffffffffffff163373ffffffffffffffffffffffffffffffffffffffff167f44d8e77a775c28caeb187f3d075393023f89802855771a543607e45e1094e09c89436040516111f8929190613389565b60405180910390a35050505050505050565b611212611d45565b6002819080600181540180825580915050600190039060005260206000200160009091909190916101000a81548173ffffffffffffffffffffffffffffffffffffffff021916908373ffffffffffffffffffffffffffffffffffffffff16021790555050565b60008061128361227d565b90508060000160009054906101000a900473ffffffffffffffffffffffffffffffffffffffff1691505090565b606060006112bc611d03565b90508060040180546112cd9061387a565b80601f01602080910402602001604051908101604052809291908181526020018280546112f99061387a565b80156113465780601f1061131b57610100808354040283529160200191611346565b820191906000526020600020905b81548152906001019060200180831161132957829003601f168201915b505050505091505090565b60035481565b61135f611d45565b60055460045461136f91906139c7565b8111156113b1576040517f08c379a00000000000000000000000000000000000000000000000000000000081526004016113a890613ab3565b60405180910390fd5b80600660008473ffffffffffffffffffffffffffffffffffffffff1673ffffffffffffffffffffffffffffffffffffffff168152602001908152602001600020819055505050565b60008073ffffffffffffffffffffffffffffffffffffffff168373ffffffffffffffffffffffffffffffffffffffff160361143f5761143883836122a5565b905061151a565b600082036114585761145183836122a5565b905061151a565b600033905060008054906101000a900460ff161561150c576000600160008373ffffffffffffffffffffffffffffffffffffffff1673ffffffffffffffffffffffffffffffffffffffff16815260200190815260200160002080549050111561150b5760006114c782856122c8565b905080611509576040517f08c379a000000000000000000000000000000000000000000000000000000000815260040161150090613c50565b60405180910390fd5b505b5b61151684846122a5565b9150505b92915050565b6002818154811061153057600080fd5b906000526020600020016000915054906101000a900473ffffffffffffffffffffffffffffffffffffffff1681565b600061156961243e565b905060008160000160089054906101000a900460ff1615905060008260000160009054906101000a900467ffffffffffffffff1690506000808267ffffffffffffffff161480156115b75750825b9050600060018367ffffffffffffffff161480156115ec575060003073ffffffffffffffffffffffffffffffffffffffff163b145b9050811580156115fa575080155b15611631576040517ff92ee8a900000000000000000000000000000000000000000000000000000000815260040160405180910390fd5b60018560000160006101000a81548167ffffffffffffffff021916908367ffffffffffffffff16021790555083156116815760018560000160086101000a81548160ff0219169083151502179055505b6116f56040518060400160405280600c81526020017f446563656e7472616c47505400000000000000000000000000000000000000008152506040518060400160405280600381526020017f4447430000000000000000000000000000000000000000000000000000000000815250612466565b6116fe8661247c565b611706610c2d565b600a6117129190613da3565b648bb2c970006117229190613dee565b600381905550611730610c2d565b600a61173c9190613da3565b64e8d4a5100061174c9190613dee565b60048190555060035460058190555061176e611766611278565b600354611f63565b60016000806101000a81548160ff02191690831515021790555083156117e45760008560000160086101000a81548160ff0219169083151502179055507fc7f505b2f371ae2175ee4913f4499e1f2633a7b5936321eed1cdaeb6115181d260016040516117db9190613e89565b60405180910390a15b505050505050565b6000808261ffff16600160008673ffffffffffffffffffffffffffffffffffffffff1673ffffffffffffffffffffffffffffffffffffffff16815260200190815260200160002080549050101561184957600080915091506118e9565b6000600160008673ffffffffffffffffffffffffffffffffffffffff1673ffffffffffffffffffffffffffffffffffffffff1681526020019081526020016000208461ffff16815481106118a05761189f6138ab565b5b9060005260206000209060030201604051806060016040529081600082015481526020016001820154815260200160028201548152505090508060200151816040015192509250505b9250929050565b60008054906101000a900460ff1681565b8342111561194657836040517f6279130200000000000000000000000000000000000000000000000000000000815260040161193d9190613341565b60405180910390fd5b60007f6e71edae12b1b97f4d1f60370fef10105fa2faae0126114a169c64845d6126c98888886119758c612490565b8960405160200161198b96959493929190613ea4565b60405160208183030381529060405280519060200120905060006119ae826124f5565b905060006119be8287878761250f565b90508973ffffffffffffffffffffffffffffffffffffffff168173ffffffffffffffffffffffffffffffffffffffff1614611a3257808a6040517f4b800e46000000000000000000000000000000000000000000000000000000008152600401611a29929190613f05565b60405180910390fd5b611a3d8a8a8a611d33565b50505050505050505050565b60045481565b600080611a5a611d03565b90508060010160008573ffffffffffffffffffffffffffffffffffffffff1673ffffffffffffffffffffffffffffffffffffffff16815260200190815260200160002060008473ffffffffffffffffffffffffffffffffffffffff1673ffffffffffffffffffffffffffffffffffffffff1681526020019081526020016000205491505092915050565b611aec611d45565b600073ffffffffffffffffffffffffffffffffffffffff168173ffffffffffffffffffffffffffffffffffffffff1603611b5e5760006040517f1e4fbdf7000000000000000000000000000000000000000000000000000000008152600401611b55919061364f565b60405180910390fd5b611b6781611fe5565b50565b611b72611d45565b600073ffffffffffffffffffffffffffffffffffffffff168173ffffffffffffffffffffffffffffffffffffffff1603611bf2573373ffffffffffffffffffffffffffffffffffffffff166108fc479081150290604051600060405180830381858888f19350505050158015611bec573d6000803e3d6000fd5b50611ca3565b600081905060008173ffffffffffffffffffffffffffffffffffffffff166370a08231306040518263ffffffff1660e01b8152600401611c32919061364f565b602060405180830381865afa158015611c4f573d6000803e3d6000fd5b505050506040513d601f19601f82011682018060405250810190611c73919061399a565b9050611ca033828473ffffffffffffffffffffffffffffffffffffffff1661253f9092919063ffffffff16565b50505b50565b611cae611d45565b60008060006101000a81548160ff0219169083151502179055507fb5e70c210d2e71a1c7a0374093a7500a98144cb3e42b1347119779fc7f6e1e774243604051611cf9929190613389565b60405180910390a1565b60007f52c63247e1f47db19d5ce0460030c497f067ca4cebf71ba98eeadabe20bace00905090565b600033905090565b611d4083838360016125be565b505050565b611d4d611d2b565b73ffffffffffffffffffffffffffffffffffffffff16611d6b611278565b73ffffffffffffffffffffffffffffffffffffffff1614611dca57611d8e611d2b565b6040517f118cdaa7000000000000000000000000000000000000000000000000000000008152600401611dc1919061364f565b60405180910390fd5b565b6000611dd88484611a4f565b90507fffffffffffffffffffffffffffffffffffffffffffffffffffffffffffffffff8114611e5a5781811015611e4a578281836040517ffb8f41b2000000000000000000000000000000000000000000000000000000008152600401611e4193929190613f2e565b60405180910390fd5b611e59848484840360006125be565b5b50505050565b600073ffffffffffffffffffffffffffffffffffffffff168373ffffffffffffffffffffffffffffffffffffffff1603611ed25760006040517f96c6fd1e000000000000000000000000000000000000000000000000000000008152600401611ec9919061364f565b60405180910390fd5b600073ffffffffffffffffffffffffffffffffffffffff168273ffffffffffffffffffffffffffffffffffffffff1603611f445760006040517fec442f05000000000000000000000000000000000000000000000000000000008152600401611f3b919061364f565b60405180910390fd5b611f4f8383836127a4565b505050565b6000611f5e6129e3565b905090565b600073ffffffffffffffffffffffffffffffffffffffff168273ffffffffffffffffffffffffffffffffffffffff1603611fd55760006040517fec442f05000000000000000000000000000000000000000000000000000000008152600401611fcc919061364f565b60405180910390fd5b611fe1600083836127a4565b5050565b6000611fef61227d565b905060008160000160009054906101000a900473ffffffffffffffffffffffffffffffffffffffff169050828260000160006101000a81548173ffffffffffffffffffffffffffffffffffffffff021916908373ffffffffffffffffffffffffffffffffffffffff1602179055508273ffffffffffffffffffffffffffffffffffffffff168173ffffffffffffffffffffffffffffffffffffffff167f8be0079c531659141344cd1fd0a4f28419497f9722a3daafe3b4186f6b6457e060405160405180910390a3505050565b6000806120c7612a47565b90508060000160008473ffffffffffffffffffffffffffffffffffffffff1673ffffffffffffffffffffffffffffffffffffffff16815260200190815260200160002054915050919050565b60007fa16a46d94261c7517cc8ff89f61c0ce93598e3c849801011dee649a6a557d100905090565b60606000612147612113565b90508060020180546121589061387a565b80601f01602080910402602001604051908101604052809291908181526020018280546121849061387a565b80156121d15780601f106121a6576101008083540402835291602001916121d1565b820191906000526020600020905b8154815290600101906020018083116121b457829003601f168201915b505050505091505090565b606060006121e8612113565b90508060030180546121f99061387a565b80601f01602080910402602001604051908101604052809291908181526020018280546122259061387a565b80156122725780601f1061224757610100808354040283529160200191612272565b820191906000526020600020905b81548152906001019060200180831161225557829003601f168201915b505050505091505090565b60007f9016d09d72d40fdae2fd8ceac6b6234c7706214fd39c1cd1e609a0528c199300905090565b6000806122b0611d2b565b90506122bd818585611e60565b600191505092915050565b600080600160008573ffffffffffffffffffffffffffffffffffffffff1673ffffffffffffffffffffffffffffffffffffffff16815260200190815260200160002090506000818054905003612322576001915050612438565b6000805b82805490508110156123a457828181548110612345576123446138ab565b5b90600052602060002090600302016002015442101561239157828181548110612371576123706138ab565b5b9060005260206000209060030201600101548261238e9190613909565b91505b808061239c9061393d565b915050612326565b506000813073ffffffffffffffffffffffffffffffffffffffff166370a08231886040518263ffffffff1660e01b81526004016123e1919061364f565b602060405180830381865afa1580156123fe573d6000803e3d6000fd5b505050506040513d601f19601f82011682018060405250810190612422919061399a565b61242c91906139c7565b90508481101593505050505b92915050565b60007ff0c57e16840df040f15088dc2f81fe391c3923bec73e23a9662efc9c229c6a00905090565b61246e612a6f565b6124788282612aaf565b5050565b612484612a6f565b61248d81612aec565b50565b60008061249b612a47565b90508060000160008473ffffffffffffffffffffffffffffffffffffffff1673ffffffffffffffffffffffffffffffffffffffff168152602001908152602001600020600081548092919060010191905055915050919050565b6000612508612502611f54565b83612b72565b9050919050565b60008060008061252188888888612bb3565b9250925092506125318282612ca7565b829350505050949350505050565b6125b9838473ffffffffffffffffffffffffffffffffffffffff1663a9059cbb8585604051602401612572929190613f65565b604051602081830303815290604052915060e01b6020820180517bffffffffffffffffffffffffffffffffffffffffffffffffffffffff8381831617835250505050612e0b565b505050565b60006125c8611d03565b9050600073ffffffffffffffffffffffffffffffffffffffff168573ffffffffffffffffffffffffffffffffffffffff160361263c5760006040517fe602df05000000000000000000000000000000000000000000000000000000008152600401612633919061364f565b60405180910390fd5b600073ffffffffffffffffffffffffffffffffffffffff168473ffffffffffffffffffffffffffffffffffffffff16036126ae5760006040517f94280d620000000000000000000000000000000000000000000000000000000081526004016126a5919061364f565b60405180910390fd5b828160010160008773ffffffffffffffffffffffffffffffffffffffff1673ffffffffffffffffffffffffffffffffffffffff16815260200190815260200160002060008673ffffffffffffffffffffffffffffffffffffffff1673ffffffffffffffffffffffffffffffffffffffff16815260200190815260200160002081905550811561279d578373ffffffffffffffffffffffffffffffffffffffff168573ffffffffffffffffffffffffffffffffffffffff167f8c5be1e5ebec7d5bd14f71427d1e84f3dd0314c0f7b2291e5b200ac8c7c3b925856040516127949190613341565b60405180910390a35b5050505050565b60006127ae611d03565b9050600073ffffffffffffffffffffffffffffffffffffffff168473ffffffffffffffffffffffffffffffffffffffff160361280457818160020160008282546127f89190613909565b925050819055506128dd565b60008160000160008673ffffffffffffffffffffffffffffffffffffffff1673ffffffffffffffffffffffffffffffffffffffff16815260200190815260200160002054905082811015612893578481846040517fe450d38c00000000000000000000000000000000000000000000000000000000815260040161288a93929190613f2e565b60405180910390fd5b8281038260000160008773ffffffffffffffffffffffffffffffffffffffff1673ffffffffffffffffffffffffffffffffffffffff16815260200190815260200160002081905550505b600073ffffffffffffffffffffffffffffffffffffffff168373ffffffffffffffffffffffffffffffffffffffff160361292857818160020160008282540392505081905550612978565b818160000160008573ffffffffffffffffffffffffffffffffffffffff1673ffffffffffffffffffffffffffffffffffffffff168152602001908152602001600020600082825401925050819055505b8273ffffffffffffffffffffffffffffffffffffffff168473ffffffffffffffffffffffffffffffffffffffff167fddf252ad1be2c89b69c2b068fc378daa952ba7f163c4a11628f55a4df523b3ef846040516129d59190613341565b60405180910390a350505050565b60007f8b73c3c69bb8fe3d512ecc4cf759cc79239f7b179b0ffacaa9a75d522b39400f612a0e612ea2565b612a16612f1e565b4630604051602001612a2c959493929190613f8e565b60405160208183030381529060405280519060200120905090565b60007f5ab42ced628888259c08ac98db1eb0cf702fc1501344311d8b100cd1bfe4bb00905090565b612a77612f9a565b612aad576040517fd7e6bcf800000000000000000000000000000000000000000000000000000000815260040160405180910390fd5b565b612ab7612a6f565b6000612ac1611d03565b905082816003019081612ad49190614183565b5081816004019081612ae69190614183565b50505050565b612af4612a6f565b600073ffffffffffffffffffffffffffffffffffffffff168173ffffffffffffffffffffffffffffffffffffffff1603612b665760006040517f1e4fbdf7000000000000000000000000000000000000000000000000000000008152600401612b5d919061364f565b60405180910390fd5b612b6f81611fe5565b50565b60006040517f190100000000000000000000000000000000000000000000000000000000000081528360028201528260228201526042812091505092915050565b60008060007f7fffffffffffffffffffffffffffffff5d576e7357a4501ddfe92f46681b20a08460001c1115612bf3576000600385925092509250612c9d565b600060018888888860405160008152602001604052604051612c189493929190614255565b6020604051602081039080840390855afa158015612c3a573d6000803e3d6000fd5b505050602060405103519050600073ffffffffffffffffffffffffffffffffffffffff168173ffffffffffffffffffffffffffffffffffffffff1603612c8e57600060016000801b93509350935050612c9d565b8060008060001b935093509350505b9450945094915050565b60006003811115612cbb57612cba61429a565b5b826003811115612cce57612ccd61429a565b5b0315612e075760016003811115612ce857612ce761429a565b5b826003811115612cfb57612cfa61429a565b5b03612d32576040517ff645eedf00000000000000000000000000000000000000000000000000000000815260040160405180910390fd5b60026003811115612d4657612d4561429a565b5b826003811115612d5957612d5861429a565b5b03612d9e578060001c6040517ffce698f7000000000000000000000000000000000000000000000000000000008152600401612d959190613341565b60405180910390fd5b600380811115612db157612db061429a565b5b826003811115612dc457612dc361429a565b5b03612e0657806040517fd78bce0c000000000000000000000000000000000000000000000000000000008152600401612dfd9190613455565b60405180910390fd5b5b5050565b6000612e36828473ffffffffffffffffffffffffffffffffffffffff16612fba90919063ffffffff16565b90506000815114158015612e5b575080806020019051810190612e5991906142f5565b155b15612e9d57826040517f5274afe7000000000000000000000000000000000000000000000000000000008152600401612e94919061364f565b60405180910390fd5b505050565b600080612ead612113565b90506000612eb961213b565b9050600081511115612ed657808051906020012092505050612f1b565b6000826000015490506000801b8114612ef457809350505050612f1b565b7fc5d2460186f7233c927e7db2dcc703c0e500b653ca82273b7bfad8045d85a47093505050505b90565b600080612f29612113565b90506000612f356121dc565b9050600081511115612f5257808051906020012092505050612f97565b6000826001015490506000801b8114612f7057809350505050612f97565b7fc5d2460186f7233c927e7db2dcc703c0e500b653ca82273b7bfad8045d85a47093505050505b90565b6000612fa461243e565b60000160089054906101000a900460ff16905090565b6060612fc883836000612fd0565b905092915050565b60608147101561301757306040517fcd78605900000000000000000000000000000000000000000000000000000000815260040161300e919061364f565b60405180910390fd5b6000808573ffffffffffffffffffffffffffffffffffffffff1684866040516130409190614369565b60006040518083038185875af1925050503d806000811461307d576040519150601f19603f3d011682016040523d82523d6000602084013e613082565b606091505b509150915061309286838361309d565b925050509392505050565b6060826130b2576130ad8261312c565b613124565b600082511480156130da575060008473ffffffffffffffffffffffffffffffffffffffff163b145b1561311c57836040517f9996b315000000000000000000000000000000000000000000000000000000008152600401613113919061364f565b60405180910390fd5b819050613125565b5b9392505050565b60008151111561313f5780518082602001fd5b6040517f1425ea4200000000000000000000000000000000000000000000000000000000815260040160405180910390fd5b600081519050919050565b600082825260208201905092915050565b60005b838110156131ab578082015181840152602081019050613190565b60008484015250505050565b6000601f19601f8301169050919050565b60006131d382613171565b6131dd818561317c565b93506131ed81856020860161318d565b6131f6816131b7565b840191505092915050565b6000602082019050818103600083015261321b81846131c8565b905092915050565b600080fd5b600073ffffffffffffffffffffffffffffffffffffffff82169050919050565b600061325382613228565b9050919050565b61326381613248565b811461326e57600080fd5b50565b6000813590506132808161325a565b92915050565b6000819050919050565b61329981613286565b81146132a457600080fd5b50565b6000813590506132b681613290565b92915050565b600080604083850312156132d3576132d2613223565b5b60006132e185828601613271565b92505060206132f2858286016132a7565b9150509250929050565b60008115159050919050565b613311816132fc565b82525050565b600060208201905061332c6000830184613308565b92915050565b61333b81613286565b82525050565b60006020820190506133566000830184613332565b92915050565b60006020828403121561337257613371613223565b5b600061338084828501613271565b91505092915050565b600060408201905061339e6000830185613332565b6133ab6020830184613332565b9392505050565b6000806000606084860312156133cb576133ca613223565b5b60006133d986828701613271565b93505060206133ea86828701613271565b92505060406133fb868287016132a7565b9150509250925092565b600060ff82169050919050565b61341b81613405565b82525050565b60006020820190506134366000830184613412565b92915050565b6000819050919050565b61344f8161343c565b82525050565b600060208201905061346a6000830184613446565b92915050565b60007fff0000000000000000000000000000000000000000000000000000000000000082169050919050565b6134a581613470565b82525050565b6134b481613248565b82525050565b600081519050919050565b600082825260208201905092915050565b6000819050602082019050919050565b6134ef81613286565b82525050565b600061350183836134e6565b60208301905092915050565b6000602082019050919050565b6000613525826134ba565b61352f81856134c5565b935061353a836134d6565b8060005b8381101561356b57815161355288826134f5565b975061355d8361350d565b92505060018101905061353e565b5085935050505092915050565b600060e08201905061358d600083018a61349c565b818103602083015261359f81896131c8565b905081810360408301526135b381886131c8565b90506135c26060830187613332565b6135cf60808301866134ab565b6135dc60a0830185613446565b81810360c08301526135ee818461351a565b905098975050505050505050565b60008060006060848603121561361557613614613223565b5b600061362386828701613271565b9350506020613634868287016132a7565b9250506040613645868287016132a7565b9150509250925092565b600060208201905061366460008301846134ab565b92915050565b6000602082840312156136805761367f613223565b5b600061368e848285016132a7565b91505092915050565b600061ffff82169050919050565b6136ae81613697565b81146136b957600080fd5b50565b6000813590506136cb816136a5565b92915050565b600080604083850312156136e8576136e7613223565b5b60006136f685828601613271565b9250506020613707858286016136bc565b9150509250929050565b61371a81613405565b811461372557600080fd5b50565b60008135905061373781613711565b92915050565b6137468161343c565b811461375157600080fd5b50565b6000813590506137638161373d565b92915050565b600080600080600080600060e0888a03121561378857613787613223565b5b60006137968a828b01613271565b97505060206137a78a828b01613271565b96505060406137b88a828b016132a7565b95505060606137c98a828b016132a7565b94505060806137da8a828b01613728565b93505060a06137eb8a828b01613754565b92505060c06137fc8a828b01613754565b91505092959891949750929550565b6000806040838503121561382257613821613223565b5b600061383085828601613271565b925050602061384185828601613271565b9150509250929050565b7f4e487b7100000000000000000000000000000000000000000000000000000000600052602260045260246000fd5b6000600282049050600182168061389257607f821691505b6020821081036138a5576138a461384b565b5b50919050565b7f4e487b7100000000000000000000000000000000000000000000000000000000600052603260045260246000fd5b7f4e487b7100000000000000000000000000000000000000000000000000000000600052601160045260246000fd5b600061391482613286565b915061391f83613286565b9250828201905080821115613937576139366138da565b5b92915050565b600061394882613286565b91507fffffffffffffffffffffffffffffffffffffffffffffffffffffffffffffffff820361397a576139796138da565b5b600182019050919050565b60008151905061399481613290565b92915050565b6000602082840312156139b0576139af613223565b5b60006139be84828501613985565b91505092915050565b60006139d282613286565b91506139dd83613286565b92508282039050818111156139f5576139f46138da565b5b92915050565b7f63616e206e6f74206d696e740000000000000000000000000000000000000000600082015250565b6000613a31600c8361317c565b9150613a3c826139fb565b602082019050919050565b60006020820190508181036000830152613a6081613a24565b9050919050565b7f6d617820737570706c7920726561636865640000000000000000000000000000600082015250565b6000613a9d60128361317c565b9150613aa882613a67565b602082019050919050565b60006020820190508181036000830152613acc81613a90565b9050919050565b7f4549503731323a20556e696e697469616c697a65640000000000000000000000600082015250565b6000613b0960158361317c565b9150613b1482613ad3565b602082019050919050565b60006020820190508181036000830152613b3881613afc565b9050919050565b7f4e487b7100000000000000000000000000000000000000000000000000000000600052604160045260246000fd5b6000613b7982613697565b915061ffff8203613b8d57613b8c6138da565b5b600182019050919050565b7f6e6f74206f776e6572206f72206c6f636b207472616e736665722061646d696e600082015250565b6000613bce60208361317c565b9150613bd982613b98565b602082019050919050565b60006020820190508181036000830152613bfd81613bc1565b9050919050565b7f77616c6c6574206973206c6f636b656400000000000000000000000000000000600082015250565b6000613c3a60108361317c565b9150613c4582613c04565b602082019050919050565b60006020820190508181036000830152613c6981613c2d565b9050919050565b60008160011c9050919050565b6000808291508390505b6001851115613cc757808604811115613ca357613ca26138da565b5b6001851615613cb25780820291505b8081029050613cc085613c70565b9450613c87565b94509492505050565b600082613ce05760019050613d9c565b81613cee5760009050613d9c565b8160018114613d045760028114613d0e57613d3d565b6001915050613d9c565b60ff841115613d2057613d1f6138da565b5b8360020a915084821115613d3757613d366138da565b5b50613d9c565b5060208310610133831016604e8410600b8410161715613d725782820a905083811115613d6d57613d6c6138da565b5b613d9c565b613d7f8484846001613c7d565b92509050818404811115613d9657613d956138da565b5b81810290505b9392505050565b6000613dae82613286565b9150613db983613405565b9250613de67fffffffffffffffffffffffffffffffffffffffffffffffffffffffffffffffff8484613cd0565b905092915050565b6000613df982613286565b9150613e0483613286565b9250828202613e1281613286565b91508282048414831517613e2957613e286138da565b5b5092915050565b6000819050919050565b600067ffffffffffffffff82169050919050565b6000819050919050565b6000613e73613e6e613e6984613e30565b613e4e565b613e3a565b9050919050565b613e8381613e58565b82525050565b6000602082019050613e9e6000830184613e7a565b92915050565b600060c082019050613eb96000830189613446565b613ec660208301886134ab565b613ed360408301876134ab565b613ee06060830186613332565b613eed6080830185613332565b613efa60a0830184613332565b979650505050505050565b6000604082019050613f1a60008301856134ab565b613f2760208301846134ab565b9392505050565b6000606082019050613f4360008301866134ab565b613f506020830185613332565b613f5d6040830184613332565b949350505050565b6000604082019050613f7a60008301856134ab565b613f876020830184613332565b9392505050565b600060a082019050613fa36000830188613446565b613fb06020830187613446565b613fbd6040830186613446565b613fca6060830185613332565b613fd760808301846134ab565b9695505050505050565b60008190508160005260206000209050919050565b60006020601f8301049050919050565b600082821b905092915050565b6000600883026140437fffffffffffffffffffffffffffffffffffffffffffffffffffffffffffffffff82614006565b61404d8683614006565b95508019841693508086168417925050509392505050565b600061408061407b61407684613286565b613e4e565b613286565b9050919050565b6000819050919050565b61409a83614065565b6140ae6140a682614087565b848454614013565b825550505050565b600090565b6140c36140b6565b6140ce818484614091565b505050565b5b818110156140f2576140e76000826140bb565b6001810190506140d4565b5050565b601f8211156141375761410881613fe1565b61411184613ff6565b81016020851015614120578190505b61413461412c85613ff6565b8301826140d3565b50505b505050565b600082821c905092915050565b600061415a6000198460080261413c565b1980831691505092915050565b60006141738383614149565b9150826002028217905092915050565b61418c82613171565b67ffffffffffffffff8111156141a5576141a4613b3f565b5b6141af825461387a565b6141ba8282856140f6565b600060209050601f8311600181146141ed57600084156141db578287015190505b6141e58582614167565b86555061424d565b601f1984166141fb86613fe1565b60005b82811015614223578489015182556001820191506020850194506020810190506141fe565b86831015614240578489015161423c601f891682614149565b8355505b6001600288020188555050505b505050505050565b600060808201905061426a6000830187613446565b6142776020830186613412565b6142846040830185613446565b6142916060830184613446565b95945050505050565b7f4e487b7100000000000000000000000000000000000000000000000000000000600052602160045260246000fd5b6142d2816132fc565b81146142dd57600080fd5b50565b6000815190506142ef816142c9565b92915050565b60006020828403121561430b5761430a613223565b5b6000614319848285016142e0565b91505092915050565b600081519050919050565b600081905092915050565b600061434382614322565b61434d818561432d565b935061435d81856020860161318d565b80840191505092915050565b60006143758284614338565b91508190509291505056fea26469706673582212204860e7ebf60615cd3473178331a62f7158bea4d6efbde40b47ca1619ca8690b564736f6c63430008140033",
  "linkReferences": {},
  "deployedLinkReferences": {}
}